:020000040000FA
:040000000128FE2FA6
:100F6E0021009D14BA2F9D18BD2FBE2FBA2FBF2F53
:100F7E00080023000C1521001D08833908389D0038
:100F8E009E171D141E088F3930389E000800013040
:100F9E003B009E0060309B00910192010430960050
:100FAE000030950022001D143B000E140800210095
:100FBE000C08C03904388C00220091137A302100BD
:100FCE0099008731CE2787318731C0278731EF2FA0
:100FDE008731B727873121001C083B009400210080
:100FEE001B083B0093000F14EF2FEF2F012820005A
:020FFE00DE2FE4
:020000040001F9
:04000E00A4F9FFDA78
:00000001FF
