:020000040000FA
:040000000128FE2FA6
:100E920021009D144C2F9D184F2F502F4C2F512F56
:100EA200080023000C1521001D08833908389D0015
:100EB2009E171D141E088F3930389E0008003B0013
:100EC2009E0160309B009101920106309600C9306C
:100ED200950022001D143B000E14080021000C088E
:100EE200C03904388C000C12220091137A30210090
:100EF2009900873160278731873152278731812FC7
:100F0200873149278731013021001C02B93003198A
:100F12001B02031C8D2F8E2FA32F02301C02EF30D9
:100F220003191B020318962F972FA32F1B08E83EC5
:100F3200F00003301C3DF10070083B009300710883
:100F42009400F92F003021001C02643003191B02A7
:100F52000318AC2FAD2FBE2F02301C02EF30031945
:100F62001B02031CB52FB62FBE2F22000C16063013
:100F72003B009400C9309300F92F031022000C1E8D
:100F820003140318C52FC82F22000C16CA2F2200E3
:100F92000C12F201F301720A031DD42F730A031912
:100FA200D32FD42FD62FF92FF92FF4011E30740628
:100FB2000319DC2FDD2FDF2FEB2FEB2F0000013089
:100FC200F0007008F4071E3074060319E92FEA2FA7
:100FD200DF2FEB2F0130F2070030F33D720A031DC1
:100FE200F72F730A0319F62FF72FD62FF92FF92FA0
:0E0FF2003B000F14812F812F012820006F2F4C
:020000040001F9
:04000E00A4F9FFDA78
:00000001FF
