:020000040000FA
:040000000128FE2FA6
:100F160021009D148E2F9D18912F922F8E2F932F87
:100F2600080023000C1521001D08833908389D0090
:100F36009E171D141E088F3930389E0008003B008E
:100F46009E0160309B009101920106309600C930E7
:100F5600950022001D143B000E14080021000C0809
:100F6600C03904388C000C12220091137A3021000B
:100F760099008731A2278731873194278731C32F7C
:100F860087318B278731013021001C02B9300319C4
:100F96001B02031CCF2FD02FDD2F1B08E83EF000CD
:100FA60003301C3DF10070083B009300710894006B
:100FB6000F14DD2F003021001C02643003191B02C0
:100FC6000318E62FE72FC32F02301C02EF30031958
:100FD6001B02031CEF2FF02FC32FF42FF42FC32F68
:100FE600C32F22000C1606303B009400C930930034
:0A0FF600F42FF42F01282000B12F82
:020000040001F9
:04000E00A4F9FFDA78
:00000001FF
